:1000000000000120910100007F0300008103000037
:100010008303000085030000870300000000000048
:10002000000000000000000000000000450D01007D
:100030008B030000000000000D0E0100490E0100BE
:10004000910300009303000091E50000A9E800007F
:10005000990300009B0300009D0300009F03000024
:10006000A1030000A3030000DDDC00000DDE0000A2
:10007000A9030000AB030000AD030000AF030000C4
:10008000B1030000B3030000B5030000B5E00000B9
:10009000B9030000BB030000BD030000BF03000064
:1000A000C1030000C3030000C5030000A1ED000070
:1000B000D1EE0000CB030000CD030000CF03000011
:1000C000D1030000D30300003D090000D703000066
:1000D000D9030000DB030000DD030000DF030000A4
:1000E000E1030000E3030000E5030000E703000074
:1000F000E9030000EB030000ED030000EF03000044
:10010000F1030000F3030000F5030000F703000013
:10011000F9030000FB030000FD030000FF030000E3
:1001200001040000030400000504000007040000AF
:10013000090400000B0400000D0400000F0400007F
:10014000110400001304000015040000170400004F
:10015000190400001B0400001D0400001F0400001F
:1001600021040000230400002504000027040000EF
:10017000290400002B0400002D0400002F040000BF
:100180003104000033040000000000000000000003
:100190004FF0000BDFF8BE020068DFF8B612096806
:1001A00001F0030100F01C00142801D14BF0020BF8
:1001B000002901D04BF0010BBBF1000F05D0A7487F
:1001C000A749DFF8722200F09FF8A64880470BF09D
:1001D000020ABAF1000F0CD0DFF86E02DFF86E12DF
:1001E00002680B680FB44FF000024FF0FF0302608B
:1001F0000B609D489D4A9E4B022808D1DFF83E12B5
:100200000A60DFF842120A60DFF836120B6001283C
:1002100008D1DFF82E120A60DFF82A120A60DFF830
:100220001E120B609348002809D193489349944AC1
:1002300000F032F893489449944A00F02DF894481D
:100240009449954A00F028F894489549DFF8E6214A
:1002500000F05AF8BBF1000F12D092489249DFF833
:10026000DA2100F051F80BF0020ABAF1000F07D0C2
:100270000FBC02600B6000BFAFF30080AFF30080E3
:10028000DFF828020FF2030E00474FF000004FF096
:100290000001DFF81CF2FEE72DE9F841884225D085
:1002A000B2EB010200D5FEE740EA010313F00303BD
:1002B00002D000F01DF819E04FF000039046121133
:1002C000F7D09A421CBFF0C8F0C103F10103F8D186
:1002D00008F00F08B8F1000F08D004780C7000F196
:1002E000010001F10101B8F10108F6D1BDE8F88182
:1002F00008B54FF0000303780B7000F1010001F125
:100300000101013AF7D108BD884237D000F0030659
:10031000002E14D04FF00405A5EB06044FF008079B
:1003200007FB06F8914669FA08F9002C07D080F817
:10033000009069FA07F900F10100013CF5E74FF080
:1003400000060F46091A88460911914614461546BB
:10035000B14206D018BFA0E8340206F10106B1424E
:10036000F8D108F00F08B8F1000F07D002704FEA7B
:10037000322200F10100B8F10108F4E77047FEE70E
:10038000FEE7FEE7FEE7FEE7FEE7FEE7FEE7FEE745
:10039000FEE7FEE7FEE7FEE7FEE7FEE7FEE7FEE735
:1003A000FEE7FEE7FEE7FEE7FEE7FEE7FEE7FEE725
:1003B000FEE7FEE7FEE7FEE7FEE7FEE7FEE7FEE715
:1003C000FEE7FEE7FEE7FEE7FEE7FEE7FEE7FEE705
:1003D000FEE7FEE7FEE7FEE7FEE7FEE7FEE7FEE7F5
:1003E000FEE7FEE7FEE7FEE7FEE7FEE7FEE7FEE7E5
:1003F000FEE7FEE7FEE7FEE7FEE7FEE7FEE7FEE7D5
:10040000FEE7FEE7FEE7FEE7FEE7FEE7FEE7FEE7C4
:10041000FEE7FEE7FEE7FEE7FEE7FEE7FEE7FEE7B4
:10042000FEE7FEE7FEE7FEE7FEE7FEE7FEE7FEE7A4
:10043000FEE7FEE7704700000000A2A2A2A2008033
:100440000340088003401080034030800340348024
:1004500003403880034018080240000000F00020EC
:1004600000000120692401000000000000000000DD
:10047000010000000000000000000000000000007B
:1004800090010000C0040000C0040000F0C601009C
:10049000F0C6010000000020C0000020D0000020B5
:1004A00020EB002020EB002000F000208530010030
:1004B0008D26010000000000000000000000000088
:1004C00010B5054C237833B9044B13B10448AFF38E
:1004D00000800123237010BDD00000200000000028
:1004E000D0C60100084B10B51BB108480849AFF34E
:1004F00000800848036803B910BD074B002BFBD0F0
:10050000BDE81040184700BF00000000D0C6010041
:10051000D4000020000000200000000010B50421DD
:100520000446062010F07CFD074A2060B2F88431B2
:10053000B2F8861101339BB29942A2F8843138BFD8
:10054000A2F88631002010BDACE2002038B5054687
:10055000006811F01BF8084C20B1B4F88831013361
:10056000A4F88831286811F021F8B4F88431013BEF
:10057000A4F8843138BD00BFACE200200068003030
:1005800018BF0120704700BF00230360704700BF01
:1005900030B5054683B002AC44F8041D28682146F6
:1005A0004FF0FF32002310F06BFD0128F6D103B0AD
:1005B00030BD00BF10B5154B84B05A680191C2F32D
:1005C000080282B100242346006801A903AA03940B
:1005D00010F06AFE039B63B9012808BF00200DD10B
:1005E00040B204B010BD01A91346006810F048FDE8
:1005F000F2E7009010F0EAFB0098EDE7044AFF20D4
:10060000B2F888310133A2F88831E9E700ED00E063
:10061000ACE20020F0B583B00C460546174611F059
:10062000EDF90646E4B16FB9286821464FF0FF3274
:10063000002310F077FE0128F6D111F0DFF9801BBE
:1006400003B0F0BD28683A462146002310F06AFE48
:100650000128F2D000234FF0FF30236003B0F0BD3B
:1006600001ACE0E700B583B061B100221346006839
:1006700010F058FE10F1FF3018BF4FF0FF3003B0FC
:100680005DF804FB01A9F0E770B505460E460120B0
:10069000002110F0C5FCF0B100210A460B460446CB
:1006A00010F0EEFC86B1104A0020B2F87831B2F8B2
:1006B0007A1101339BB29942A2F8783138BFA2F87F
:1006C0007A3140B22C6070BD20463146334601225B
:1006D00010F028FEE7E7044AFF20B2F87C3140B270
:1006E0000133A2F87C3170BDACE2002070B50E463B
:1006F000044611F083F9054666B900210B462068CF
:100700004FF0FF3210F00EFE0128F6D111F076F90D
:10071000401B70BD0021206832460B4610F002FEDF
:100720000128F3D04FF0FF3070BD00BF00210068FA
:100730000A460B4610F0A4BC044A0068B2F87831AF
:10074000013BA2F8783110F031BF00BFACE20020CD
:1007500001207047704700BF704700BFF0B5864664
:10076000174687B00C9E002405AD9AB208463B465A
:100770007146009601950294039411F0EBF801285C
:1007800014BF2046059807B0F0BD00BF08B510F0B3
:1007900025FB012008BD00BF10F02CBB00487047AE
:1007A0002345414200230360704700BF134A70B5E0
:1007B00013680D46012B05D11148042141601368CF
:1007C000012BFBD00123136000240E4E00E02D68A6
:1007D00030196A89696812F08BFC6B892A891C447C
:1007E0009A42A4B2F3D1084806492246034B0FF0BF
:1007F00007FB0128F7D1002070BD00BF1C0D0020B1
:1008000000E100E03C010020B8E100202DE9F041CA
:10081000434E002205460C46424843490FF080FAF9
:100820003268002A70D1414901230F683360002FDC
:100830006AD03F4B28781978884237D05978687841
:10084000884233D09978A87888422FD0D978E87830
:1008500088422BD019792879884227D0597968792C
:10086000884223D0DFF8CCC0D5F800809CF8001077
:10087000DFF8C4E0881D4EF80180B5F80480C0B2EE
:100880007144A1F804803C2808BF8CF800202A7825
:1008900018BF8CF800001A706A785A70AA789A709B
:1008A000EA78DA702A791A716A795A71A1B259B361
:1008B0000320024605F072FE804638B304466068A5
:1008C0006289294612F014FC2468002CF7D11649DD
:1008D000224614480FF024FAD8F80430346098897E
:1008E00002F058FEB0F5006F08D040F606039842BB
:1008F00004D04046BDE8F04105F0B0BD3B69394643
:10090000404698470028F4D1BDE8F08105480649E3
:1009100042460FF005FAC6F80080BDE8F08100BF3E
:1009200038010020B8E100202C070020EC00002056
:10093000F40000202A070020FC00002001480FF0EE
:10094000CDBA00BFB8E100202DE9F04704463E498A
:100950003E4A3F48002701234526302582B084F8CF
:100960002E6084F82F50A161E7616061D76684F83A
:10097000303011F0A7FF054640F2DC5E027894F8B3
:100980002D3084F827204278324E84F8282082784F
:10099000314984F82920EA78DFF8D48084F82A20C5
:1009A0002A79DFF8D0A084F82B2095F805902B4801
:1009B0004FF0060C502263F04D0384F826C0A4F8D3
:1009C00024E0CAF8007084F82C9084F82D3004607C
:1009D0000F60304688F822230FF0B0F8FF236846F6
:1009E00001A9B37311F080FF009B1D4C73602A783E
:1009F000019B3272697832467172A9782046B172D1
:100A000095F803E0336086F80BE095F804E04FF0CA
:100A1000405186F80CE06B7973730EF059FB204659
:100A200010490FF039FB20460F490FF037FB2046E5
:100A30003A460E490FF074F938460423C8F80430DA
:100A400002B0BDE8F08700BFAD07000000800340A2
:100A50008513000028E2002038010020EC0000206F
:100A6000B8E10020A50700000D0800002C070020B9
:100A700000E100E01C0D0020044B1A7822B104496B
:100A80000420002248601A70704700BFF000002068
:100A900000E100E038B50D46034B04491C782246BE
:100AA00012F026FB2C7038BD2A070020FC00002025
:100AB00010B5064B0024214605483C221C7012F05C
:100AC00022FB044B1C609C8010BD00BF2A07002045
:100AD000FC000020F40000202DE9F04FDFF8B08288
:100AE00083B0002800F0008100230A2542469E467C
:100AF00001932E46AC46AB469A46009104E0013382
:100B00000A2B02F1140217D00A2EDCB2977C4AD0CD
:100B1000002FF4D0016889465168894500F00E81A4
:100B2000012F44D0D77C0133774524BFA446BE466D
:100B30000A2B02F11402E7D100998C0700F1108111
:100B400077B20A2F04463CD007EB870308EB8303F8
:100B50009B7CF5B2B3B18C4861214FF06042D2F872
:100B6000803EDE0709D5D2F8003EDB0705D500E060
:100B700000BF1368002BFBD0117010F8011F002973
:100B8000EDD100BEBB0024B12168DA1908EB820266
:100B900051603B4408EB83030022EDB2DA7468B283
:100BA00003B0BDE8F08F002FB4D12646A7E7176841
:100BB000002F00F0C880D77C5745A0D32546BA4601
:100BC0009DE7CA0740F1CC80BCF10A0F6AD05FFAFA
:100BD0008CF5AE0073199B0058F803002F46434470
:100BE000002800F0BF80DFF8ACE161214FF06042E7
:100BF000D2F8803EDB0709D5D2F8003EDB0705D5E9
:100C000000E000BF1368002BFBD011701EF8011F1D
:100C10000029EDD100BE092D53D9DFF870E169211B
:100C20004FF06042D2F8803EDB0709D5D2F8003E93
:100C3000DB0705D500E000BF1368002BFBD0117067
:100C40001EF8011F0029EDD100BE002800F096809B
:100C5000009105F003FC73199B00009908EB030257
:100C600048F803109174494869214FF06042D2F866
:100C7000803EDB0709D5D2F8003EDB0705D500E052
:100C800000BF1368002BFBD0117010F8011F002962
:100C9000EDD100BE731908EB83039B7C002B3FF45E
:100CA00071AF58E7BBF10A0F16D10A2D58D0EDB23B
:100CB0002F46AE00731958F82300092DADD800282F
:100CC00049D005F0CBFB73199B00002108EB030210
:100CD000917448F8031055E75FFA8BF5AE0073196D
:100CE00058F823002F46E8E70A2542462E46AC4630
:100CF000AB46044681460746864605E001340A2C89
:100D000002F114023FF419AF0A2E937C0AD0002B93
:100D1000F4D0012B0AD0D37C9F42EFD81F465FFA54
:100D200084FCEBE7002BF4D1E6B2E7E71368F3B1FC
:100D3000D37C4B45E2D39946E5B2DFE7E5B268B232
:100D400003B0BDE8F08FD77C01998F42FFF4D7AE96
:100D5000A3460197D3E6731908EB8303987411E750
:100D6000FF251CE7092D3FF658AF98740AE7D37C9E
:100D70007345C3D39E465FFA84FBBFE7731908EB44
:100D8000830398746FE700BF00430100EC42010049
:100D9000240D0020D44201002DE9F041174D4FF001
:100DA0000008A5F1120404F1C806022709E0012A8F
:100DB00020D0032A08BFA7741434B44205F11405E7
:100DC00016D0A27C002AF7D0E37C0133DBB2EF2BF4
:100DD000E374ECD955F8120C18B105F03FFB45F857
:100DE000128C84F812801434B44205F11405E8D151
:100DF000BDE8F081012BEDD8DEE700BF360D002005
:100E000070B55A4C0546A37C13B1A36883424FD0FA
:100E100094F82630554E13B1F369AB4251D094F893
:100E20003A30524E13B1336BAB4254D094F84E303B
:100E30004E4E13B1736CAB4257D094F862304B4EA8
:100E400013B1B36DAB425AD094F87630474E13B11C
:100E5000F36EAB425DD094F88A30444E1BB1D6F8A5
:100E60008030AB425FD094F89E30404E1BB1D6F834
:100E70009430AB4261D094F8B2303C4E1BB1D6F8FE
:100E8000A830AB4265D094F8C630384E1BB1D6F8C6
:100E9000BC30AB4200D070BDD6F8B40020B105F034
:100EA000DDFA0023C6F8B430002384F8C630F2E738
:100EB000206818B105F0D2FA002323600023A37440
:100EC000A6E7706918B105F0C9FA00237361002321
:100ED00084F82630A3E7B06A18B105F0BFFA002302
:100EE000B362002384F83A30A0E7F06B18B105F044
:100EF000B5FA0023F363002384F84E309DE7306D8C
:100F000018B105F0ABFA00233365002384F8623092
:100F10009AE7706E18B105F0A1FA002373660023FA
:100F200084F8763097E7B06F18B105F097FA002390
:100F3000B367002384F88A3095E7D6F88C0020B197
:100F400005F08CFA0023C6F88C30002384F89E301C
:100F500091E7D6F8A00020B105F080FA0023C6F88A
:100F6000A030002384F8B2308DE700BF240D0020AC
:100F70002DE9F84307460E4600F12708051D002815
:100F80007ED003202A21002205F008FB814600289C
:100F900000F08E804389292B5AD90120D9F80440CA
:100FA00002F0F8FAA08297F82630062B16D04348B4
:100FB0006E214FF06042D2F8803EDB0709D5D2F8AF
:100FC000003EDB0705D500E000BF1368002BFBD017
:100FD000117010F8011F0029EDD100BE384AD8F871
:100FE00000101068374BC4F81610B8F804E0918868
:100FF00020629A881868A4F81AE0A280A184206070
:10100000D8F800300622C4F80630B8F804100423DB
:10101000618129684FF48075E16130680821C4F866
:101020002600A274E3744FF4C162BB693846218282
:10103000A281E581494698470446234A4846138BD6
:101040000133138305F00AFA204640B2BDE8F88365
:101050001E4863214FF06042D2F8803EDB0709D57D
:10106000D2F8003EDC0705D500E000BF1368002B76
:10107000FBD0117010F8011F0029EDD100BE8CE7E4
:1010800013486E214FF06042D2F8803EDB0709D54D
:10109000D2F8003EDC0705D500E000BF1368002B46
:1010A000FBD0117010F8011F0029EDD100BE68E7D8
:1010B000054AFF20938C01339384C6E794430100D3
:1010C0008C440100CC420100ACE2002060430100EE
:1010D000504301002DE9F043374C4FEA820808EBFA
:1010E000020304EB830303F1100999F8027083B043
:1010F000012F0E4605463CD9022F03D199F8031063
:10110000E3294ED895F82630424404EB8204062B9E
:1011100004F10C0405F1270E776816D027486E21DC
:101120004FF06042D2F8803EDB0709D5D2F8003E8E
:10113000DB0705D500E000BF1368002BFBD0117062
:1011400010F8011F0029EDD100BE2068314638603B
:101150002846A3880822BB80DEF80030C7F8063096
:10116000BEF80430BA817B81AB6903B0BDE8F043BF
:101170001847134F61204FF06041D1F8803EDB07E4
:1011800009D5D1F8003EDB0705D500E000BF0B68AC
:10119000002BFBD0087017F8010F0028EDD100BE1E
:1011A000B0E7191D0192FFF7E3FE019A0028A9D1CB
:1011B000032389F80230A5E7240D002094430100A1
:1011C000D84301002DE9F047894605460146D9F884
:1011D0000000144601F0B6FC002840F09780D9F8D2
:1011E000003003F0F002E02A00F09080002B00F0C5
:1011F0008D8048460121FFF76FFC071E7ADBBE0099
:10120000DFF87C81F31908EB83039A7C1033002A02
:101210003BD0012A3BD0002C7CD095F826303E44B0
:10122000534A08EB8608062B08F10C08177066680D
:1012300016D050486E214FF06042D2F8803EDB0756
:1012400009D5D2F8003EDF0705D500E000BF1368DE
:10125000002BFBD0117010F8011F0029EDD100BE4A
:101260002B46D8F8000021463060B8F80400082268
:10127000B08053F8274F2846C6F806409B88B281B5
:101280007381AB69BDE8F047184701229A7049465F
:101290002846FFF76DFE002C34D0F31908EB8303CA
:1012A0009B7C012BB9D82DD121464FF0604205E03F
:1012B0000B7B012B37D1096800294AD048890B895B
:1012C0009842F5D10B685BB32B4D6E20D2F8803E6F
:1012D000DB0709D5D2F8003EDB0705D500E000BFEB
:1012E0001368002BFBD0107015F8010F0028EDD10A
:1012F00000BEDDE71CB1214A938C0133938478B2A0
:10130000BDE8F087074678B2BDE8F087F22778B2EB
:10131000BDE8F08728464946BDE8F047FFF728BEFC
:101320000B7B012B15D009890320002205F036F92B
:101330000546B0B1214605F0E9FB78B9F31958F834
:10134000230008B105F08AF83E4448F826500027EB
:10135000D5E7204605F048FB2546EFE7284605F08F
:101360007DF8064AFF27938C01339384C7E700BFBB
:10137000200D00209443010008440100ACE200204D
:10138000240D0020F0B50D4683B016460446002813
:1013900000F00981002D00F02081002E00F09A80DD
:1013A00028460E2104F0D6FF002840F0398130682D
:1013B000214601F0C7FB002840F0A480336803F009
:1013C000F002E02A00F0D2806268A1685A400A4226
:1013D0000AD04FF6A96299B2914205D0E36804F1B0
:1013E0000C06002B00F024819E4F9F493A7802EBB7
:1013F000820001EB800090F812E0BEF1010F03D9EA
:101400004068984200F016818A7C9748012A03D9E7
:1014100042689A4200F01B8191F826209248012AE6
:1014200003D982699A4200F00E8191F83A208E48E1
:10143000012A03D9C26A9A4200F0078191F84E202E
:101440008948012A03D9026C9A4200F0FA8091F887
:1014500062208548012A03D9426D9A4200F0FB8040
:1014600091F876208048012A03D9826E9A4200F0D2
:10147000F48091F88A207C48012A03D9C26F9A42ED
:1014800000F0E78091F89E207748012A04D9D0F82F
:1014900090209A4200F0E38091F8B2207248012A2D
:1014A00004D9D0F8A4209A4200F0AF8091F8C62069
:1014B0006D49012A06D9D1F8B8209A4208BF0923FC
:1014C00000F0A480204631462A4603B0BDE8F04033
:1014D000FFF778BE654A69204FF06041D1F8803E41
:1014E000DB0709D5D1F8003EDF0705D500E000BFD6
:1014F0000B68002BFBD0087012F8010F0028EDD10B
:1015000000BE4DE794F8263004F12707062B6E68DD
:10151000DFF86CE116D056486E214FF06042D2F8E9
:10152000803EDB0709D5D2F8003EDB0705D500E099
:1015300000BF1368002BFBD0117010F8011F0029A9
:10154000EDD100BEDEF80000294630602046BEF82E
:1015500004300822B3803B68C6F80630BB88B281ED
:101560007381A36903B0BDE8F0401847737894F81D
:10157000262096F802E0F77803F07F0301265E212B
:10158000062A8DF804E08DF805708DF800608DF85E
:1015900001008DF803308DF8021004F127076E6802
:1015A000EE46B8D1CEE733486E224FF06041D1F815
:1015B000803EDB0709D5D1F8003EDF0705D500E006
:1015C00000BF0B68002BFBD00A7010F8012F002A17
:1015D000EDD100BE002D7FF4E0AE274871224FF020
:1015E0006041D1F8803EDB0709D5D1F8003EDF0726
:1015F00005D500E000BF0B68002BFBD00A7010F887
:10160000012F002AEDD100BEC7E60823DBB21A463F
:10161000204629463B7003B0BDE8F040FFF75ABDB5
:10162000164AFE2053890133538140B203B0F0BD06
:10163000FC20FAE7114E2046F38D29460133F3854D
:10164000E9E70323E2E70123E0E70223DEE70023E3
:10165000DCE70623DAE70423D8E70523D6E70723E8
:10166000D4E700BF200D0020240D002030440100ED
:10167000944301005043010024440100ACE20020E7
:10168000CC4201002DE9F04F478985B00E2F04466A
:1016900018D945680E462B78B5F80C80DA070BD5BB
:1016A000012B59D02846AD49062211F011FD18B979
:1016B000637B43F008036373B8F1080F2AD0B8F5D1
:1016C000C16F0DD0A64B198DDA8B0131013219850E
:1016D000DA83204604F0C2FE002005B0BDE8F08F9A
:1016E00096F82D309A06F4D5292F45D9EB89B3F514
:1016F000807F04D140F206436A8A9A4247D0984BD1
:101700002046198DDA8B013101321985DA8304F014
:10171000A5FEE1E796F82D309F06DAD520466FF05A
:101720000D0104F017FE10B38E4843214FF06042C4
:10173000D2F8803EDE0709D5D2F8003EDD0705D598
:1017400000E000BF1368002BFBD0117010F8011FE0
:101750000029EDD100BEBCE76B78002BACD1AB7893
:101760005E2BA9D1437B43F010034373A4E72046CB
:10177000314600F065FFAFE7794B2046598CDA8B94
:10178000013101325984DA8304F068FEA4E72B8A20
:10179000082BB4D1AA46DFF8C8917768B9F81A3097
:1017A0000133A9F81A305AF81C0F0290D5F8260018
:1017B0000390002F00F0A180039B05F1160B9F42C0
:1017C00007BF01273A460027022296F82630062B4B
:1017D00017D0DFF898E16E204FF06041D1F8803EDD
:1017E000DB0709D5D1F8003EDB0705D500E000BFD7
:1017F0000B68002BFBD008701EF8010F0028EDD1FC
:1018000000BE0298019206F12708002869D03146EF
:1018100001F098F90090002863D1029B03F0F003D7
:10182000E02B5ED0019A02A81146FFF755F9002877
:1018300057DB142303FB00F3DFF834E102220EEB45
:1018400003018A748E60DBF800005EF80320C86034
:10185000BBF8040001909DF80000C874BDF80400B6
:101860000882002A3DD000994EF8031096F82630E1
:10187000D2F804E0062B17D0DFF8F8C06E204FF046
:101880006043D3F8801EC90709D5D3F8001EC907E5
:1018900005D500E000BF19680029FBD018701CF8BE
:1018A000010F0028EDD100BEDBF800304FF0080C2E
:1018B000CEF80030BBF804301146AEF80430D8F84A
:1018C00000303046CEF80630B8F80430AEF80CC020
:1018D000AEF80A30B36900929847009A104604F0B7
:1018E000BDFDAB8AB3F5807F11D0B3F5007F08D181
:1018F000304602A903F096FBEBE605F1160B022237
:1019000063E7B9F82C300133A9F82C30E1E6002F59
:101910003FF4DFAE022001F03DFEA882DAF800308D
:10192000C5F826307368EB6196F82630062B24D074
:101930000D4A4FF0604312F8011FE9B1D3F8800E51
:10194000C707F8D5D3F8000EC007F4D500E000BFF4
:1019500018680028FBD01970EDE700BFCC420100E9
:10196000ACE20020404401009343010064440100C4
:10197000240D00209443010000BEDBF80030304607
:101980002B62BBF804302146AB84DBF800302B60BF
:10199000BBF80430AB80D8F80030CBF80030B8F892
:1019A0000430ABF80430D8F80030C5F80630B8F889
:1019B00004306B81B36998478BE600BF2DE9F04393
:1019C000804685B00E46154601202421002204F0F1
:1019D000E5FD0446002857D04389232B16D82C4810
:1019E00063214FF06042D2F8803EDF0709D5D2F87C
:1019F000003EDB0705D500E000BF1368002BFBD0DD
:101A0000117010F8011F0029EDD100BE6768D8F8E9
:101A100000907D703E70D8F800300025BD80FD80BC
:101A20001E6858689968D3F80CC0D4F804E0CEF862
:101A30000860CEF80C00CEF81010CEF814C01E6965
:101A400058699969CEF81860CEF81C00CEF82010BD
:101A5000618938467D8000F057FC0E4ED9F80C1095
:101A6000B6F8603004AA7880012042F8041D009581
:101A700029461D180190FF232046A6F8605001F06A
:101A800015F8204604F0EAFC05B0BDE8F08300BF7D
:101A900094440100ACE200202DE9F04FB64D4768B8
:101AA000B5F8623087B00133A5F862303C788846DB
:101AB00004F00F04A400C4F100094946064604F0EE
:101AC00049FCD0B93389032B17D973681B78002BD5
:101AD00068D0082B6CD1DFF8BCA2DAF8000000F067
:101AE000F003E02B00F0A480414601F02BF8002821
:101AF00040F0A1803389072B65D8304604F0AEFC56
:101B0000B5F86A300133A5F86A3007B0BDE8F08F48
:101B100030466FF0210104F01DFC002840F09B804E
:101B20000FFA8BFB4FF6F6747068944BDAF80010DE
:101B30001A6843884FF0000EA3428CBF0933083364
:101B40003A61FF249AB20023F960428080F800E0F5
:101B5000142138463C727B8100F0D6FBB5F860203A
:101B60005946788101323046A5F8602004F0F2FB36
:101B7000002800F0CA80824843214FF06042D2F82A
:101B8000803EDC0709D5D2F8003EDB0705D500E032
:101B900000BF1368002BFBD0117010F8011F002943
:101BA000EDD100BE304607B0BDE8F04F04F056BCA2
:101BB000B5F87020B5F8663001320133A5F8702011
:101BC000A5F86630EEE7304600F0DAFB002839D1A0
:101BD000304622211FFA84FB04F0BCFB002897D07A
:101BE0000FFA8BFB5946304604F0B4FB002849D06D
:101BF000644869214FF06042D2F8803EDF0709D582
:101C0000D2F8003EDC0705D500E000BF1368002BCA
:101C1000FBD0117010F8011F0029EDD100BE304635
:101C200004F01CFCB5F874300133A5F874306CE78F
:101C3000414600F087FFB5F8743030460133A5F80F
:101C40007430B0E7304604F009FCB5F86830013371
:101C5000A5F8683059E74C4869214FF06042D2F846
:101C6000803EDB0709D5D2F8003EDF0705D500E04E
:101C700000BF1368002BFBD0117010F8011F002962
:101C8000EDD1CBE702203189002204F087FC8446A5
:101C90000028C4D043890834A34217D23B486321AB
:101CA0004FF06042D2F8803EDB0709D5D2F8003E03
:101CB000DF0705D500E000BF1368002BFBD01170D3
:101CC00010F8011F0029EDD100BE60463146CDF865
:101CD00014C004F01BFFDDF814C010B32C486921B8
:101CE0004FF06042D2F8803EDC0709D5D2F8003EC2
:101CF000DB0705D500E000BF1368002BFBD0117097
:101D000010F8011F0029EDD188E70121009002465B
:101D10000191CDF80880234630461E4900F0C0FDF1
:101D200040E760464946DCF80470CDF814C004F082
:101D300011FBDDF814C0B0B1134869214FF06042C7
:101D4000D2F8803EDF0709D5D2F8003EDC0705D582
:101D500000E000BF1368002BFBD0117010F8011FCA
:101D60000029EDD15AE73046CDF814C004F076FBD7
:101D7000DDF814C06646D5E6ACE200205CE2002047
:101D800040440100C044010054450100F4440100F6
:101D90002C45010064E200200A4604300321FFF7CD
:101DA0000DBE00BF0A4604300B21FFF707BE00BF7F
:101DB0002DE9F0473B4B06461B68002088B00F46D4
:101DC00002460821069304F0E9FB044600285FD090
:101DD00043894568072B16D8334869214FF0604284
:101DE000D2F8803EDB0709D5D2F8003EDB0705D5E7
:101DF00000E000BF1368002BFBD0117010F8011F2A
:101E00000029EDD100BE7368162F5B68069307D0DA
:101E1000172F38D0204604F021FB08B0BDE8F0872A
:101E2000B26801236A6006F1080933734FF00008B5
:101E30002F7085F80180A5F802802846082100F05F
:101E400063FA40F2944E194FD6F804A0B7F87830F0
:101E50004FF0020C688007AE5D1C04210491CDF8A0
:101E60000080CDF808A0CDF804C003964A4620466D
:101E700006A90123A7F87850ADF81E80ADF81CE044
:101E800000F018FDC6E7B368DFF824906B60CDE77B
:101E9000064AB2F882300133A2F8823008B0BDE8B9
:101EA000F08700BFE046010088450100ACE2002059
:101EB000F00D002003490448044B054A08601A60ED
:101EC000704700BFEC0D0020E0000001F00D002085
:101ED000E000000238B51A4D04462B68CBB1194A10
:101EE000116801E01B68A3B15A689442FAD19A685C
:101EF0008A42F7D1197C0131C9B2022219745A738E
:101F0000636B23B120460F4901229847002358B242
:101F100038BD0B2004F00CF870B10A4B2A68196820
:101F200000238160C38143730373037444600260C0
:101F3000286003460121E0E7FF2358B238BD00BF07
:101F4000F40D0020EC0D0020124B70B51C683CB164
:101F5000054601266368AB4203D02468002CF9D102
:101F600070BD637B022B06D0012BF6D1E389013BC8
:101F70009BB2042BF1D9FEF711FC074B0340002B59
:101F800003DB0133E3816673E7E7013B63F003039F
:101F90000133F6E7F40D002003000080094B1B68B5
:101FA00073B110B401E01B6833B15A688242FAD1B0
:101FB0009C680A689442F6D118465DF8044B704755
:101FC00018467047F40D00202DE9F043724E446826
:101FD000B6F87A300D460133A6F87A30217883B00E
:101FE00001F00F01890049420746904604F0B2F91A
:101FF00010B9798907290AD8384604F02FFAB6F8BB
:1020000080300133A6F8803003B0BDE8F083D7F804
:102010000490484600F078F970BB604B1A6802B330
:10202000144601E02468E4B163689D42FAD1D8F80F
:102030000010A3688B42F5D199F8001011292FD018
:10204000162922D1B6F88C300133A6F88C30637B88
:10205000012B00F08B80384603B0BDE8F04304F05C
:10206000FDB9384604F0FAF9B6F87C300133A6F829
:102070007C3003B0BDE8F083384604F0EFF9B6F8E1
:102080007E300133A6F87E30BEE73846B6F884309D
:102090000133A6F8843003B0BDE8F04304F0DEB9A4
:1020A000DFF8FC80D8F800109942D9F804101FD04E
:1020B0000029EAD0B6F888300133A6F88830627B70
:1020C00099F80130022A05D0012AC4D1E2890AB167
:1020D0009A42C0D9002B5BD05D1EFEF75FFB90FBE0
:1020E000F5F303FB150001228318E3816273B2E765
:1020F000002933D199F80130002B43D1B6F886304E
:102100000A210133A6F8863089F80110012602E081
:102110001268002A9FD05368AB42F9D19168D8F871
:1021200000309942F4D0517B99F80130022905D052
:102130000129EDD1D18909B19942E9D953B35C1E86
:102140000192FEF72BFB90FBF4F303FB1400019AC2
:10215000431C5673D381DBE712686AB153689D4212
:10216000FAD193689942F7D11446A3E700230222DB
:10217000E381237362736EE7B6F87C300133A6F80F
:102180007C3068E7B6F88A300133A6F88A30BDE7BC
:102190001D46A2E71C46D3E7ACE20020F40D002068
:1021A000EC0D002038B50F4B1C68D4B10E4D01E08A
:1021B0002468B4B1E289531E9BB2002AF8D0E381AF
:1021C000002BF5D1637B012BF2D1B5F8923020467C
:1021D00001331621A5F89230FFF7EAFD2468002CA0
:1021E000E8D138BDF40D0020ACE200202DE9F04F1D
:1021F00085B00093BDF83830884691460193002899
:102200007ED04FF0000C6446E346D0F804A0468927
:102210001AF00107ADF80EB0B64609D0002E6DD009
:102220009AF8003006F1FF3E8DF80F300AF1010AEE
:10223000BEF1010F66DD73465146002231F8025BA4
:10224000023B012B2A44F9DCAEF1020E4FEA5E0399
:10225000591CAEEB430E0AEB410ABEF1010F04BF5D
:102260009AF800308DF80E30BDF80E301A4493B253
:1022700003EB124293B203EB124227B113029BB25B
:10228000C2F307221A4393B21A1994B2F30704EB6C
:10229000124409D52302CCF1010C9BB2C4F30722EE
:1022A0005FFA8CFC42EA030400680028ADD1BCF15F
:1022B000000F04D023029BB2C4F307241C43D8F8B8
:1022C0000030D9F800109AB202EB13438AB21344DB
:1022D00003EB114300981C4401F05CF9044401989D
:1022E00001F058F9204483B203EB104083B203EBB2
:1022F0001040C04380B205B0BDE8F08F3246BDE764
:102300000446DCE70022A8E770B4002383B010F095
:102310000106ADF8063005D029B3037801398DF8F0
:1023200007300130012928DD0B460446002234F82D
:10233000025B023B012B2A44F9DC02394B085C1C8E
:10234000A1EB430100EB4400012904BF03788DF8A1
:102350000630BDF8061011448BB203EB11418BB26D
:1023600003EB114126B10B029BB2C1F307211943C4
:10237000C94388B203B070BC70470022E4E700BFD5
:1023800000286BD02DE9F0430027BC46BE4683B041
:10239000D0F80490468919F00108ADF806E03546FA
:1023A00008D0002E52D099F80030751E8DF80730F5
:1023B00009F10109012D54DD2B464946002231F86F
:1023C000024B023B012B2244F9DC023D6B08591CF5
:1023D000A5EB430509EB4109012D04BF99F8003035
:1023E0008DF80630BDF806301A4493B203EB124262
:1023F00093B203EB1242B8F1000F05D0110289B27B
:10240000C2F3072343EA010293B203EB0C021FFA63
:1024100082FCF3070CEB124C09D54FEA0C23C7F1F1
:1024200001079BB2CCF30722FFB242EA030C00681B
:102430000028ADD167B14FEA0C20CCF3072280B25F
:102440001043C04380B203B0BDE8F0833246D5E705
:102450006FEA0C0290B203B0BDE8F0834FF6FF7054
:1024600070470022B8E700BF2DE9F04F0446C0894D
:1024700083B001280F4690461D469DF830A09DF878
:1024800034900E9E16D0554A70234FF06040D0F81D
:10249000801EC90709D5D0F8001EC90705D500E080
:1024A00000BF01680029FBD0037012F8013F002B28
:1024B000EDD100BEB8F1000F78D02046142103F012
:1024C00049FF002840F082806389D4F804B0132BC0
:1024D00016D8434A63234FF06040D0F8801EC907E6
:1024E00009D5D0F8001EC90705D500E000BF016876
:1024F0000029FBD0037012F8013F002BEDD100BE84
:102500008BF808508BF80990D8F8001045208AB253
:102510008BF801A08BF800004FEA0A23034302EB7B
:102520001142CBF81010208945EA0929D51801F08D
:1025300031F803464D44DFF8B0900022ABF80200BA
:10254000ABF80620B9F800001D4401F023F8B9F8F3
:10255000003005440133ABF80400A9F800301FB384
:10256000396809B38BB22B4403EB114293B203EBEE
:10257000124303EB1343DB43CBF80C10ABF80A30E8
:10258000184AB18CB2F848300133A2F8483011B182
:1025900023898B4211D821464246736930469847B9
:1025A00040B203B0BDE8F08F7168DBE763680DF1FE
:1025B00008081B6948F8043DE2E7204631464246D8
:1025C00000F0EEFE40B203B0BDE8F08F054AFE20F9
:1025D000B2F85C300133A2F85C30E1E7A0460100BC
:1025E000AC460100ACE20020F80D002010B4114B05
:1025F0001B686BB193F82D20D207F9D55C6802688F
:10260000996862400A42F3D118465DF8044B70475E
:10261000094B186830B190F82D30DB0702D55DF812
:10262000044B7047054A0020B2F856300133A2F837
:102630005630F4E7A0E20020A4E20020ACE2002043
:102640002DE9F84F904DD0F80480B5F84A30074690
:102650000133A5F84A3098F800301A09042A0ED040
:1026600003F0FCFEB5F85C20B5F84E3001320133C2
:10267000A5F85C20A5F84E300020BDE8F88F03F0E7
:102680000F03B8F802009E00894600F087FF7B899F
:102690000446B34202D33B8983420FD2384603F04B
:1026A000DDFEB5F85220B5F84E3001320133A5F801
:1026B0005220A5F84E300020BDE8F88F4046314644
:1026C000FFF722FE002840F0BC802146384604F087
:1026D000F7F8D8F810306D4803F0F001D8F80C2066
:1026E00003606B4BE0291A6035D04C46DFF8ACA193
:1026F0004FF0010B94F82D30DB0709D563683BB12F
:10270000624A1068834231D0214600F01BFA68BB50
:10271000BBF1000F15D0DAF800404C4508BF246823
:102720004FF0000B002CE5D198F80930112B0AD09E
:10273000574B1868002840F09280384603F08EFE10
:102740009AE72468E9E746447388B3F5884FEFD1E8
:102750004C467CB9F1E799F92D30002BE4DA484674
:102760004A49FFF71BFC0028DED04C46484B18684E
:10277000002875D1B8F8063023F0C0039BB243B1EE
:10278000384600F029FB074600283FF475AFD0F823
:102790000480404E404C38464946C6F80090C4F884
:1027A000008004F027FB98B998F80930013B102B02
:1027B00026D8DFE803F0201A25252515252525250F
:1027C00025252525252509003846494608F0AEFC73
:1027D0002F4A002313602D4A3360236013604BE7B8
:1027E0003846494606F058FDF2E738464946274A3A
:1027F000FFF7EAFBECE738464946FFF74DF9E7E714
:10280000224B49461868994600F09CF958B9D9F806
:10281000003003F0F003E02B05D0C7F80480384601
:102820000221FFF7B9FA384603F018FEB5F8582030
:10283000B5F84E3001320133A5F85820A5F84E30D6
:10284000C6E7384603F00AFEB5F85020B5F84E301A
:1028500001320133A5F85020A5F84E300CE70024D2
:10286000494600F06FF930B9094B1B6803F0F003DB
:10287000E02B7FF46EAF384603F0F0FDB5F84E3034
:102880000133A5F84E30F7E6ACE2002064E2002008
:102890005CE2002060E2002068E20020A0E200206C
:1028A00070B49DF80C609DF810500396049570BCB0
:1028B000FFF7DABD2DE9F04F0546C08985B0012844
:1028C0008B4617461E469DF838909DF83CA0BDF8F3
:1028D000484016D0714870214FF06042D2F8803ED7
:1028E000DB0709D5D2F8003EDB0705D500E000BFC5
:1028F0001368002BFBD0117010F8011F0029EDD1D7
:1029000000BE002F00F0A980002C7ED1142300937C
:102910002846142103F01EFD002840F0B5806B8985
:10292000D5F80480132B16D85D4963204FF0604220
:10293000D2F8803EDB0709D5D2F8003EDB0705D58B
:1029400000E000BF1368002BFBD0107011F8010FDE
:102950000028EDD100BE009B88F8086088F809A027
:102960009B08386843F04003DBB282B288F800303D
:1029700088F8019046EA0A26C8F8100002EB104ACF
:10298000288943EA092900F005FE024656443444EA
:10299000444E0023A8F80200A8F806304C443088C2
:1029A000144400F0F7FD338822180133A8F804001E
:1029B0003380BBF1000F02D0DBF8000008B9109B98
:1029C000586883B2134403EB104293B203EB1243F3
:1029D00003EB1343DB43C8F80C00A8F80A30324A73
:1029E000109B998CB2F848300133A2F8483011B1ED
:1029F0002B898B4237D8109B29463A465B69109841
:102A0000984740B205B0BDE8F08FE31C23F0030304
:102A10001FFA83F808F1140293B20FFA88F12846DE
:102A2000009303F097FC78BB0190119968682246E7
:102A300010F05EFB4445DDF804C01DD34FEA580199
:102A4000B8F1000F28D06B68002403EB410133F884
:102A5000022B8B421444FAD15AE76B6804AF1B690E
:102A600047F8043DBBE7284610993A4600F098FC29
:102A700040B205B0BDE8F08F686861462044C4EB01
:102A8000080210F040FBD9E7074AFE20B2F85C309C
:102A90000133A2F85C30B4E70C4639E7A0460100E8
:102AA000AC460100F80D0020ACE20020F0B5C4896E
:102AB00085B0012C9DF828C09DF82CE016D01D4F44
:102AC00070264FF06045D5F8804EE40709D5D5F85B
:102AD000004EE40705D500E000BF2C68002CFBD0B9
:102AE0002E7017F8016F002EEDD100BE124C246835
:102AF0008CB194F82D50EE07F9D567681568A66873
:102B00007D403542F3D18DE800500294FFF7ACFCD4
:102B100040B205B0F0BD094C24681CB194F82D50AA
:102B2000ED07F0D4064AFC20B2F856300233A2F882
:102B30005630EDE7A0460100A0E20020A4E200200C
:102B4000ACE20020431E033318D891F82D2002F088
:102B5000020202F0FF0362B14A6882420BD08B6826
:102B600042401A4207D1DB4318401B1AB3FA83F3E1
:102B70005B09184670470023184670470123184622
:102B8000704700BF10B5044648B1606908B103F052
:102B900065FC2146BDE81040062003F033BA0C481E
:102BA00070214FF06042D2F8803EDB0709D5D2F8A1
:102BB000003EDB0705D500E000BF1368002BFBD00B
:102BC000117010F8011F0029EDD100BEDDE700BF34
:102BD000E446010081422DE9F84305460E4600F027
:102BE000A580CEB13368AB4216D0684870214FF053
:102BF0006042D2F8803EDF0709D5D2F8003EDC07FC
:102C000005D500E000BF1368002BFBD0117010F851
:102C1000011F0029EDD100BE6F687B689A88002AE9
:102C200059D04FF000094FF060447B683846D3F824
:102C3000008003F0CFFE09EB000EBEF5803F14DBF1
:102C400053497022D4F8803ED80709D5D4F8003E05
:102C5000DB0705D500E000BF2368002BFBD0227006
:102C600011F8012F002AEDD100BE384647461FFA61
:102C70008EF903F0F3FB002FD7D1464B4C461A6870
:102C8000954250D0002E69D02B683360424E2946C1
:102C9000052003F0B7F935884D4516D23F48692124
:102CA0004FF06042D2F8803EDF0709D5D2F8003EEF
:102CB000DB0705D500E000BF1368002BFBD01170C7
:102CC00010F8011F0029EDD100BEC9EB05053580C4
:102CD0002046BDE8F8832A4619683846696052F8EC
:102CE000084F0121D2F80480D2F808C0D2F80CE0D5
:102CF0001C60C3F80480C3F808C0C3F80CE0146972
:102D00001C61FFF74FF8384603F064FE044638466E
:102D100003F0A4FB6F681FFA84F9002F83D11D4BC9
:102D20001A689542AED12A681A60AFE71C48702134
:102D30004FF06042D2F8803EDC0709D5D2F8003E61
:102D4000DB0705D500E000BF1368002BFBD0117036
:102D500010F8011F0029EDD100BE42E71148732190
:102D60004FF06042D2F8803EDF0709D5D2F8003E2E
:102D7000DB0705D500E000BF1368002BFBD0117006
:102D800010F8011F0029EDD100BE7DE7FC460100CF
:102D900010470100FC0D0020000E00204C470100F0
:102DA000F04601003047010038B50A4B186840B1C1
:102DB0000024C37F5A1E2BB1C27704460068002846
:102DC000F7D138BD05682146FFF704FF28460028E3
:102DD000EFD1F6E7FC0D00202DE9F04FC44ED0F8FE
:102DE0000490738E87B00133738699F800300546DE
:102DF00003F00F03052B40F0FB80B9F8060000F04C
:102E0000CDFB0190B9F8020000F0C8FB99F8003042
:102E100002902846039303F0DDFDB64F80463B88C1
:102E2000DFF8D4B203440A2B00F3F380DBF8004050
:102E3000002C3FD0D9F80C00002303E02268234681
:102E4000C2B3144662698242F8D1A169D9F8102050
:102E50009142F3D1A189B9F804209142EED1B6F89C
:102E60004620B9F806000132A246A6F846201C46C4
:102E700000F094FBC0F30C00002844D1BAF80E0017
:102E800000F08CFBC0F30C00E8B3D9F80020D9F8AF
:102E90000460D9F80800D9F80C10CAF80820CAF85C
:102EA0000C60CAF81000CAF81410D9F81020CAF83B
:102EB000182028E0052003F03BF88246002800F0A7
:102EC000E88000212022504610F01DF9DBF8002098
:102ED0000323CAF800208AF81F30D9F80020D9F857
:102EE0000460D9F80800D9F80C10CAF80820CAF80C
:102EF0000C60CAF81000CAF81410D9F81020CBF8EA
:102F000000A0CAF818203B88B9F806209844920619
:102F1000A7F8008012D4039B029903F00F03C3EBC0
:102F200083339AF81E2001EB8303019942F00102DA
:102F300003EBC103AAF81C308AF81E206E68708863
:102F400000F02CFB337803F00F03C3EB833300EB6B
:102F50008308F08800F022FBC0F30C00C0001FFAC9
:102F600088F8D5F80490DAF8043080441FFA88F81D
:102F70000022A9F80680A9F80400C9F80020002B57
:102F800000F0C0815E68B288824200F2A381904264
:102F900000F04E81B6F806E0864500F249814FF018
:102FA000010C10E0536899888842C0F0A78000F0B7
:102FB0003F81DA889042C0F03B81714518BF4FF0E5
:102FC000000C1E4696463268002AEBD17045C0F0D0
:102FD00049817045356000F09A809AF81E3013F0F0
:102FE000010812D04FF00008404607B0BDE8F08F4E
:102FF000B6F844300133A6F84430F38E2846013346
:10300000F38603F02BFA4FF00008404607B0BDE806
:10301000F08F4FF0000A0495DBF8003063B3002115
:1030200008460C46D9F80CE00AE00134C0B1DD7F57
:10303000C27F954298BF18461A68AAB1194613462E
:103040005A697245F1D19D69D9F810209542ECD1A9
:103050009D89B9F804209542EED001340028E6D1CC
:103060001A681846002AE9D110B1FFF7B3FD82446F
:10307000D04501DD012CCFDC049DBAF1000F04D056
:103080003B8843440A2B7FF7D1AEB38F0133B3871C
:10309000B3E753460595A2461D46DBF80030002BEA
:1030A00000F01F81002108460C46D9F80CE0049579
:1030B0000FE00134002800F0D38093F81FC0C27FD6
:1030C000944598BF18461A68002A00F0BD8019463A
:1030D00013465A697245ECD1D9F810209D69954282
:1030E000E7D1B3F80CC0B9F804209445E1D1EAE780
:1030F000ACE20020000E0020FC0D00207045C9F855
:103100000020C0F09580884500F2928035609AF8E2
:103110001E30DA077FF566AFBCF1000F3FF462AFF7
:10312000DAF8043058688388002B7FF45BAFD9F855
:103130000030002B00F026815A68B9F806109388F9
:10314000994207D04EE75B68D1889A8891427FF414
:1031500049AF1A461368002BF5D1904200F0DA808F
:10316000D388BAF81C20934218D0874876214FF0B4
:103170006042D2F8803EDB0709D5D2F8003EDE0778
:1031800005D500E000BF1368002BFBD0117010F8CC
:10319000011F0029EDD100BEBAF81C20534614329D
:1031A000AAF81C2053F8082FDAF80400D3F804E03A
:1031B00046689D68D968C6F804E0B560F160356876
:1031C00032601A693261BAF81C0000F0E3F900239A
:1031D0007080F380738130461421FFF795F8DAF898
:1031E0000480708165B16E6828466FF0130103F0AA
:1031F000B1F82946404603F005FC3568002DF2D1B0
:10320000DBF80030614A9A4560D0002C46D0DAF8ED
:10321000003023605146052002F0F4FE404603F0E2
:10322000D9FB3B88181A3880404607B0BDE8F08FBC
:10323000284603F0CFFB3B884FF000081B1A2846B6
:103240003B8003F00BF9CFE6049D10B1FFF7C2FC01
:103250000544A84553DD012C3FF71FAF059D14E73A
:10326000184630E74A4863214FF06042D2F8803E6A
:10327000DB0703D5D2F8003EDB070AD410F8011FA4
:103280000029F3D100BEB6F806E0B9F80400A0E6C4
:1032900000BF1368002BFBD01170EFE73D4873218E
:1032A0004FF06042D2F8803EDD0709D5D2F8003EEB
:1032B000DB0705D500E000BF1368002BFBD01170C1
:1032C00010F8011F0029EDD100BEA0E7DAF80030A8
:1032D00013609FE7C9F800304FF0010CCAF80450A2
:1032E00015E72B4698455446059D3FF7CEAE052081
:1032F00002F01EFE824600287FF4E3ADC5E6544688
:10330000059DF4E79AF81E30CAF80450D9073FF536
:1033100007AF67E6204E73254FF06041D1F8803E3D
:10332000DB0709D5D1F8003EDB0705D500E000BF7B
:103330000B68002BFBD00D7016F8015F002DEDD14E
:1033400000BE0368BBB1154D76204FF06041D1F847
:10335000803EDB0709D5D1F8003EDE0705D500E049
:1033600000BF0B68002BFBD0087015F8010F002878
:10337000EDD100BEF4E6C288BAF81C3093427FF467
:10338000F4AE0BE74A46E8E6BC470100FC0D00201E
:103390006847010030470100884701009847010055
:1033A0002DE9F04FD0F804B08FB00546BBF8060009
:1033B0008C8C0C920B9100F0F1F800F400539BB24E
:1033C000B5F808900993C0F30C03A9F1140905930B
:1033D000B4F114031FFA89F248BFA4F10D03C3F33B
:1033E000CF0303920893039B002B00F0CB80089B34
:1033F000A4F11302DB009BB20A920D930024142661
:103400004FF06047059B099AC3F30C0313430693DF
:103410000A9A039B02209342A8BF069B4FF0140117
:10342000A2BF43F4005306930D9B0022049303F0C4
:10343000B5F88046002800F0A3806B89132B14D8C0
:1034400051497422D7F8803ED80709D5D7F8003EF5
:10345000DB0705D500E000BF3B68002BFBD03A70CE
:1034600011F8012F002AEDD100BED8F80430DBF8A6
:103470000020DBF804E0DBF80800DBF80C101A6031
:10348000C3F804E09860D960DBF810201A616A681C
:103490006B899B1B1644D8F804209BB20792049AB0
:1034A0006B816E606AB316461C4602E02D6846B317
:1034B0006C89B44228BF3446A4B2002CF6D0062052
:1034C00002F036FD02228246002851D06B680320AC
:1034D0008DE818002146534602F0F8FE8146002888
:1034E00042D0284603F080FA284B361BCAF8145005
:1034F000CAF8103049464046B6B203F083FA002EAF
:1035000030D1069800F046F8049B079E1433F080F3
:1035100098B200F03FF80023708073813046142188
:10352000FEF7F2FEB1460B9E414673690C9AA9F86C
:103530000A0030469847164A4046138E01331386D8
:1035400002F08CFF039A049B0899C3EB02091FFA4F
:1035500089F31A460393059B0B449BB205938AB1EA
:1035600026464FE72D68A3E75146062002F04AFDA4
:10357000404602F073FFFF2040B20FB0BDE8F08F6D
:10358000FF20F9E70020F7E7EC470100852B00005A
:10359000ACE2002040BA80B2704700BF40BA80B2AF
:1035A000704700BF00BA704700BA704760B110B5ED
:1035B0000446006900B36369002B3DD002F04EFF62
:1035C00000232361636110BD274864214FF06042EE
:1035D000D2F8803EDB0709D5D2F8003EDB0705D5DF
:1035E00000E000BF1368002BFBD0117010F8011F22
:1035F0000029EDD100BE70471C4864214FF06042A5
:10360000D2F8803EDB0709D5D2F8003EDB0705D5AE
:1036100000E000BF1368002BFBD0117010F8011FF1
:103620000029EDD100BE636933B120690028C5D1FE
:1036300000232361636110BD0D4864214FF0604297
:10364000D2F8803EDB0709D5D2F8003EDB0705D56E
:1036500000E000BF1368002BFBD0117010F8011FB1
:103660000029EDD100BEE0E70C4801002C48010024
:103670005448010000286CD030B5046A83B0002C97
:103680007FD0636B5A1C0AD0504A1E33A2FB03231F
:103690005B09B3F5803F41D203B90123A383A36B38
:1036A0005D1C4FD0494A1E33A2FB03235B09B3F5CF
:1036B000803F2FD2002B44D10123E383A28B9A4277
:1036C00001D30023A383A37B002B33D0A36A0093F1
:1036D000E26A019222B9626A134043F08073019357
:1036E000054604F1240102F067FD2846694602F010
:1036F0009BFD284601A902F093FD284602F09EFD9D
:10370000237B0A2B04D000230A2222736373638372
:1037100003B030BD4FF6FF73E383CFE74FF6FF7280
:10372000A36BA2835A1CBDD1E38B002BC9D1A37B11
:10373000002BCBD194F8243019063BD4FF230093FF
:10374000C6E7E383E38BA28B9A42BCD3002BEED077
:10375000B7E71F4864214FF06042D2F8803EDB0794
:1037600009D5D2F8003EDB0705D500E000BF13689D
:10377000002BFBD0117010F8011F0029EDD100BE05
:103780007047144864214FF06042D2F8803EDD0754
:1037900009D5D2F8003EDC0705D500E000BF13686C
:1037A000002BFBD0117010F8011F0029EDD100BED5
:1037B00003B030BDBF2B03D96FF07F43009387E781
:1037C0004FF6FF721346009282E700BF898888880F
:1037D0007C48010098480100002835D0426910B4A7
:1037E000002A49D0038B432B18D9314C64214FF068
:1037F0006042D2F8803EDB0709D5D2F8003EDB07F5
:1038000005D500E000BF1368002BFBD0117014F841
:10381000011F0029EDD100BE4269038B1A44FF212C
:103820000133038382F8F010038B432B09D8002463
:1038300041695A1C0B44028383F8F040038B432BED
:10384000F6D95DF8044B70471A4864214FF0604286
:10385000D2F8803EDB0709D5D2F8003EDB0705D55C
:1038600000E000BF1368002BFBD0117010F8011F9F
:103870000029EDD100BE70470F4C64214FF060422B
:10388000D2F8803EDB0709D5D2F8003EDB0705D52C
:1038900000E000BF1368002BFBD0117014F8011F6B
:1038A0000029EDD100BE038B432B9ED84269B5E7BA
:1038B00000490100B0480100D44801002DE9F04161
:1038C0000646002800F0B1810C46002900F0C881AE
:1038D0000B691546B3B1A74864214FF06042D2F896
:1038E000803EDB0709D5D2F8003EDF0705D500E0B2
:1038F00000BF1368002BFBD0117010F8011F0029C6
:10390000EDD100BE6369B3B19B4864214FF06042C2
:10391000D2F8803EDB0709D5D2F8003EDF0705D597
:1039200000E000BF1368002BFBD0117010F8011FDE
:103930000029EDD100BE002002464FF49A7102F03A
:103940002DFE2061002800F089814389B3F59A7F1C
:1039500016D28A4864214FF06042D2F8803EDB07DD
:1039600009D5D2F8003EDF0705D500E000BF136897
:10397000002BFBD0117010F8011F0029EDD100BE03
:10398000637B002B00F04C817D4B1868226901237A
:103990005268206062611370626900275370636926
:1039A00096F826209A706369DF702068D4F8148036
:1039B000FFF7F8FD6369082DC8F804001F815F81D7
:1039C000DF6000F02781042D00F02481032D00F03A
:1039D0001C8100221A615A619A6196F82620002AF9
:1039E00040F01B811A7796F826206369012A8CBF64
:1039F00096F8282000225A7796F826206369022A32
:103A00008CBF96F8292000229A7796F826206369C1
:103A1000032A8CBF96F82A200022DA7796F826200F
:103A20006369042A8CBF96F82B20002283F820209B
:103A300096F826206369052A8CBF96F82C20002270
:103A400083F8212096F826206369062A8CBF96F811
:103A50002D20002283F8222096F826206369072A69
:103A60008CBF96F82E20002283F8232096F826207B
:103A70006369082A8CBF96F82F20002283F824203F
:103A800096F826206369092A8CBF96F83020002218
:103A900083F8252096F8262063690A2A8CBF96F8B9
:103AA0003120002283F8262096F8262063690B2A0D
:103AB0008CBF96F83220002283F8272096F8262023
:103AC00063690C2A8CBF96F83320002283F82820E3
:103AD00096F8262063690D2A8CBF96F834200022C0
:103AE00083F8292096F8262063690E2A8CBF96F861
:103AF0003520002283F82A2096F8263062690F2BA1
:103B00004FF0000319468CBF96F83600002082F86B
:103B10002B0062691A440133402B82F82C10F8D133
:103B200000231846626900211A440133802B82F871
:103B30006C00F7D1626913480B46C2F8EC00218390
:103B400000E062691A4482F8F0300133442BF8D166
:103B5000238BDA1C442A24D90B4864214FF060429D
:103B6000D2F8803EDB0716D5D2F8003EDF0712D52B
:103B70000DE000BF80490100A8490100D0490100C3
:103B8000040E002063825363104A010000BF1368D3
:103B9000002BFBD0117010F8011F0029E0D100BEEE
:103BA000238B6269591C13443522218383F8F0204A
:103BB000238B6269591C13440122218383F8F0206E
:103BC000238B432B17D9334864214FF06042D2F83E
:103BD000803EDE0709D5D2F8003EDB0705D500E0C0
:103BE00000BF1368002BFBD0117010F8011F0029D3
:103BF000EDD100BE238B61695A1C0B442283002245
:103C000083F8F05050B2BDE8F081227B043A012ADB
:103C10003FF6DFAE7268DA60DBE696F82720E1E671
:103C2000FCF7BCFD1C4B1860B0E61C4864224FF04A
:103C30006043D3F8801ECE0709D5D3F8001ECD0708
:103C400005D500E000BF19680029FBD01A7010F8F4
:103C5000012F002AEDD100BEF222D3E7FF22D1E7E7
:103C60000F4864224FF06043D3F8801ECC0709D57B
:103C7000D3F8001EC90705D500E000BF1968002968
:103C8000FBD01A7010F8012F002AEDD100BEFA22E5
:103C9000B8E700BF584A0100040E00204049010067
:103CA00060490100F0B5046A83B0237B0646042B0B
:103CB00004D00023042222736373638330462146B9
:103CC0000322FFF7FBFD0546E8B1637B0133DBB25E
:103CD000092B637312D82846C3EB431203EB82020D
:103CE000D20092B23D4B02F2F31283FB0213D217C1
:103CF000C2EB63139BB2638303B0F0BD2846142369
:103D0000638303B0F0BD238B1A1D442A17D93448AE
:103D100064214FF06042D2F8803EDB0709D5D2F82B
:103D2000003EDF0705D500E000BF1368002BFBD085
:103D3000117010F8011F0029EDD100BE238B6269BC
:103D4000591C13443922218383F8F020238B6269A4
:103D5000591C13440222218383F8F020238BB78C53
:103D60009A18442A17D91F4864214FF06042D2F8AC
:103D7000803EDB0709D5D2F8003EDB0705D500E021
:103D800000BF1368002BFBD0117010F8011F002931
:103D9000EDD100BE238B6269591C13443A0A21837A
:103DA00083F8F020238B61695A1C0B442283204640
:103DB00083F8F070FFF710FD218B2069F03189B294
:103DC00002F07EFD60682169074A0096432307F0F0
:103DD000E9FB2046FFF7EAFB77E700BFD34D62100F
:103DE000104A0100944A0100DC460100F0B5046A63
:103DF0000023227B83B0062A0646636203D0062294
:103E0000637363832273304621460122FFF756FD18
:103E10000546D0B1637B0133DBB2052B63730FD84A
:103E200028464FF47A729A40964B02F2F31283FBC3
:103E30000213D217C2EB63139BB2638303B0F0BDCE
:103E400028467823638303B0F0BD238B1A1D442AD0
:103E500017D98D4864214FF06042D2F8803EDB07CD
:103E600009D5D2F8003EDF0705D500E000BF136892
:103E7000002BFBD0117010F8011F0029EDD100BEFE
:103E8000238B6269591C13443922218383F8F02063
:103E9000238B6269591C13440222218383F8F0208A
:103EA000238BB78C9A18442A17D9784864214FF08D
:103EB0006042D2F8803EDB0709D5D2F8003EDB072E
:103EC00005D500E000BF1368002BFBD0117010F87F
:103ED000011F0029EDD100BE238B6269591C1344D8
:103EE0003A0A218383F8F020238B61695A1C0B4422
:103EF000228383F8F070238B9A1D442A17D96248D5
:103F000064214FF06042D2F8803EDF0709D5D2F835
:103F1000003EDB0705D500E000BF1368002BFBD097
:103F2000117010F8011F0029EDD100BE238B6269CA
:103F3000591C13443722218383F8F020238B6269B4
:103F4000591C13440422218383F8F020238B432B34
:103F500017D94F4864214FF06042D2F8803EDF0706
:103F600009D5D2F8003EDB0705D500E000BF136895
:103F7000002BFBD0117010F8011F0029EDD100BEFD
:103F8000238B6269591C13440122218383F8F0209A
:103F9000238B432B17D93E4864214FF06042D2F85F
:103FA000803EDF0709D5D2F8003EDB0705D500E0EB
:103FB00000BF1368002BFBD0117010F8011F0029FF
:103FC000EDD100BE238B6269591C13440322218367
:103FD00083F8F020238B432B17D92D4864214FF011
:103FE0006042D2F8803EDF0709D5D2F8003EDB07F9
:103FF00005D500E000BF1368002BFBD0117010F84E
:10400000011F0029EDD100BE238B6269591C1344A6
:104010001C22218383F8F020238B432B17D91C48C3
:1040200064214FF06042D2F8803EDF0709D5D2F814
:10403000003EDB0705D500E000BF1368002BFBD076
:10404000117010F8011F0029EDD100BE238B6269A9
:10405000591C134406222183204683F8F020FFF7E1
:10406000BBFB218B2069F03189B202F029FC60682A
:104070002169084A0096432307F094FA2046FFF787
:1040800095FAC7E6D34D6210104A0100944A010028
:10409000584A0100DC460100F0B5046A83B0237B76
:1040A0000546012B04D0002301222273637363832E
:1040B000284621460322FFF701FC0646D0B1637B68
:1040C0000133DBB2052B63730FD830464FF47A729D
:1040D0009A40A64B02F2F31283FB0213D217C2EBF3
:1040E00063139BB2638303B0F0BD304678236383D0
:1040F00003B0F0BD238B1A1D442A17D99C486421B4
:104100004FF06042D2F8803EDB0709D5D2F8003E7E
:10411000DF0705D500E000BF1368002BFBD011704E
:1041200010F8011F0029EDD100BE238B6269591CD4
:1041300013443922218383F8F020238B6269591CB0
:1041400013440222218383F8F020238BAF8C9A182A
:10415000442A17D9874864214FF06042D2F8803E44
:10416000DB0709D5D2F8003EDB0705D500E000BF2C
:104170001368002BFBD0117010F8011F0029EDD13E
:1041800000BE238B6269591C13443A0A218383F8C9
:10419000F020238B61695A1C0B44228383F8F07052
:1041A000238B9A1D442A17D9714864214FF060422D
:1041B000D2F8803EDB0709D5D2F8003EDF0705D5EF
:1041C00000E000BF1368002BFBD0117010F8011F36
:1041D0000029EDD100BE238B6269591C13443222A1
:1041E000218383F8F020238B6269591C1344042235
:1041F000218383F8F020606AFFF7D6F9238B1A1D1C
:10420000442A17D95C4F64214FF06042D2F8803EB7
:10421000DB0709D5D2F8003EDB0705D500E000BF7B
:104220001368002BFBD0117017F8011F0029EDD186
:1042300000BE238B6269591C1344020E218383F84C
:10424000F020238B6269591C1344C0F30742218379
:1042500083F8F020238B6269591C1344C0F30722B2
:10426000218383F8F020238B61695A1C0B4422833D
:1042700083F8F000238B9A1D442A17D93C48642107
:104280004FF06042D2F8803EDB0709D5D2F8003EFD
:10429000DF0705D500E000BF1368002BFBD01170CD
:1042A00010F8011F0029EDD100BE238B6269591C53
:1042B00013443622218383F8F020238B6269591C32
:1042C00013440422218383F8F020206AFFF76CF95D
:1042D000238B1A1D442A17D9274F64214FF06042BF
:1042E000D2F8803EDB0709D5D2F8003EDB0705D5C2
:1042F00000E000BF1368002BFBD0117017F8011FFE
:104300000029EDD100BE238B6269591C1344020EB3
:10431000218383F8F020238B6269591C1344C0F376
:104320000742218383F8F020238B6269591C1344D0
:10433000C0F30722218383F8F020238B61695A1C84
:104340000B44228383F8F000238B9A1D442A20D942
:10435000074864214FF06042D2F8803EDF0712D553
:10436000D2F8003EDB070ED509E000BFD34D621046
:10437000104A0100944A0100D84A010000BF1368A6
:10438000002BFBD0117010F8011F0029E4D100BEF2
:10439000238B6269591C13443722218383F8F02050
:1043A000238B6269591C13440422218383F8F02073
:1043B000238B432B17D94C4864214FF06042D2F82D
:1043C000803EDF0709D5D2F8003EDB0705D500E0C7
:1043D00000BF1368002BFBD0117010F8011F0029DB
:1043E000EDD100BE238B6269591C13440122218345
:1043F00083F8F020238B432B17D93B4864214FF0DF
:104400006042D2F8803EDF0709D5D2F8003EDB07D4
:1044100005D500E000BF1368002BFBD0117010F829
:10442000011F0029EDD100BE238B6269591C134482
:104430000322218383F8F020238B432B17D92A48AA
:1044400064214FF06042D2F8803EDF0709D5D2F8F0
:10445000003EDB0705D500E000BF1368002BFBD052
:10446000117010F8011F0029EDD100BE238B626985
:10447000591C13441C22218383F8F020238B432BE7
:1044800017D9194864214FF06042D2F8803EDF0707
:1044900009D5D2F8003EDB0705D500E000BF136860
:1044A000002BFBD0117010F8011F0029EDD100BEC8
:1044B000238B6269591C134406222183204683F80A
:1044C000F020FFF789F9218B2069F03189B202F0E1
:1044D000F7F960682169054A0095432307F062F8FF
:1044E0002046FFF763F8EAE5584A0100DC46010080
:1044F000F0B5046A83B0237B0646032B04D0002367
:104500000322227363736383304621460322FFF73D
:10451000D5F90546E8B1637B0133DBB2092B637340
:1045200012D82846C3EB431203EB8202D20092B2A8
:10453000724B02F2F31283FB0213D217C2EB631326
:104540009BB2638303B0F0BD28461423638303B09A
:10455000F0BD238B1A1D442A17D9694864214FF0F6
:104560006042D2F8803EDB0709D5D2F8003EDF0773
:1045700005D500E000BF1368002BFBD0117010F8C8
:10458000011F0029EDD100BE238B6269591C134421
:104590003922218383F8F020238B6269591C13444C
:1045A0000222218383F8F020238B9A18442A17D9FA
:1045B000544864214FF06042D2F8803EDB0709D5B1
:1045C000D2F8003EDF0705D500E000BF1368002BDE
:1045D000FBD0117010F8011F0029EDD100BE238B14
:1045E0006269591C13440222218383F8F020238B33
:1045F0006269591C13444022218383F8F020238BE5
:104600009A1D442A17D93E4864214FF06042D2F8DF
:10461000803EDB0709D5D2F8003EDF0705D500E074
:1046200000BF1368002BFBD0117010F8011F002988
:10463000EDD100BE238B6269591C134432222183C1
:1046400083F8F020238B6269591C134404222183D0
:1046500083F8F020606AFEF7A7FF238B07461A1D38
:10466000442A17D9284864214FF06042D2F8803E8E
:10467000DB0709D5D2F8003EDB0705D500E000BF17
:104680001368002BFBD0117010F8011F0029EDD129
:1046900000BE238B6269591C13443A0E218383F8B0
:1046A000F020238B6269591C1344C7F3074221830E
:1046B00083F8F020238B6269591C1344C7F3072247
:1046C000218383F8F020238B61695A1C0B442283D9
:1046D000204683F8F070FFF77FF8218B2069F031D6
:1046E00089B202F0EDF860682169084A0096432318
:1046F00006F058FF2046FEF759FF0CE7D34D621035
:10470000104A0100944A0100D84A0100DC46010029
:104710002DE9F04FD0F820B08BB0DBF8083082469E
:1047200091465468B3B1AE4872214FF06042D2F85E
:10473000803EDF0709D5D2F8003EDE0705D500E050
:1047400000BF1368002BFBD0117010F8011F002967
:10475000EDD100BEB9F80A302B2B02D92378022BF9
:1047600008D000234846CBF8083001F077FE0BB0A4
:10477000BDE8F08F9AF826304BB39AF82710227FC5
:104780009142EED1012B22D99AF82810627F9142F2
:10479000E7D1022B1BD09AF82910A27F9142E0D1D9
:1047A000032B14D09AF82A10E27F9142D9D1042B1E
:1047B0000DD09AF82B1094F820209142D1D1052BDE
:1047C00005D09AF82C2094F821309A42C9D160681B
:1047D000FEF7EAFEDBF800309842C2D1814B00229E
:1047E00019461A705A709A70DA700A714A718A7191
:1047F000CA710A724A72B9F80A302B2BB1D9D9F8AA
:1048000004100592B9F80820F026CBF80810CDF86E
:1048100004B0C846B346114603924FF06044CDF849
:1048200018A0CDF80090424607E012681FFA80FBFE
:1048300099B2002A00F0718153895B45C3EB0B00EC
:10484000A1EB0303F1D99046536803910493049BB1
:1048500013F80B30FF2B00F0E181039A934580F0B1
:10486000DD81B8F80A200BF102070BF10101B8B2A3
:104870009142864680F22E81049883449BF8015031
:104880003B2B00F20E81DFE813F0F000E9000C0191
:1048900004010C010C01B3000C010C010C010C0112
:1048A0000C010C010C010C010C010C010C010C01A0
:1048B0000C010C010C010C010C010C010C010C0190
:1048C0000C010C010C010C010C010C010C010C0180
:1048D0000C010C010C010C010C010C010C010C0170
:1048E0000C010C010C010C010C010C010C010C0160
:1048F000FD00F600CD00C6000C010C010C01A40067
:104900003C00042D40F0E4822B464FF0050A73442E
:104910001FFA83FB344BCDF808B01A4607930023E7
:104920000993304B564603EB0A07BB46774602EB2A
:104930008A09CAEB060307EB8303092E9BB214D93D
:104940002A486321D4F8802ED20709D5D4F8002E46
:10495000D20705D500E000BF2268002AFBD02170F5
:1049600010F8011F0029EDD100BE9BF80020002A9D
:1049700040F0B680032D00F29780404609A92A46F0
:10498000DDF808B002F0C8F9012D40F063819DF810
:104990002400079A012342F82600124A9355B8F8DA
:1049A0000A205A453FF653AF039BC2EB0B0B9A1AF2
:1049B00093B21FFA8BFB9B45039380F02F81D8F8AD
:1049C0000080B8F1000F00F06D82D8F80430049335
:1049D0003DE7042D40F00D822B46AA4697E700BF25
:1049E000184B01006CE2002078E20020684B0100C7
:1049F000AE0740F0DF822B46082D28BF0823AB42CC
:104A000000F29A8275441FFA85FB002BC9D01D461F
:104A10004FF0080A7EE7042D40F074822B464FF0D9
:104A2000020A74E7012DD7D0B8496C224FF06043D9
:104A30009DE8000AD3F8800EC5070AD5D3F8000E0A
:104A4000C40706D5186818B900BF18680028FBD03D
:104A50001A7011F8012F002AECD15CE0042D40F00F
:104A600085822B464FF0060A51E789B2002529447A
:104A70001FFA81FB95E7012D40F0B6822B464FF0DF
:104A8000000A44E7042D40F0CE812B464FF0030A84
:104A90003DE7032D40F2E181ABB24FF0070A042558
:104AA00035E77146ADB2E2E7404609A9042202F0BB
:104AB00033F9042D00F0F081AB0714D101230998DC
:104AC0000BF8013BFEF76EFD043D013649F8040B7F
:104AD000EDB22EE7D8F8000010B340680578CFE6B5
:104AE000DDF808B05BE78A4864214FF060429DE83A
:104AF000000AD2F8803EDF0709D5D2F8003EDE0773
:104B000005D500E000BF1368002BFBD0117010F832
:104B1000011F0029EDD100BE23E69DE8000A20E632
:104B20003B2B00F2B68101A050F823F06B4A000045
:104B30006D4F0000934E00005B4E0000934E00004E
:104B4000934E00008F4E0000934E0000934E0000E5
:104B5000934E0000934E0000934E0000934E0000D1
:104B6000934E0000934E0000934E0000934E0000C1
:104B7000934E0000934E0000934E0000934E0000B1
:104B8000934E0000934E0000934E0000934E0000A1
:104B9000934E0000934E0000934E0000934E000091
:104BA000934E0000934E0000934E0000934E000081
:104BB000934E0000934E0000934E0000934E000071
:104BC000934E0000934E0000934E0000934E000061
:104BD000934E0000934E0000934E0000934E000051
:104BE000934E0000934E0000934E0000934E000041
:104BF000934E0000934E0000274E0000E94F000046
:104C0000294A0000054F0000934E0000934E00001B
:104C1000934E0000F34D0000D14E00003D4B3D4A45
:104C20001B784BB13C4B00211B681170012B2CD021
:104C3000022B03D0032B26D0059B5BB300230593E7
:104C40006C2303934FF02C0B009BDDF800805B89F5
:104C50000399E8E5314969224FF060439DE8000A75
:104C6000D3F8800EC50709D5D3F8000EC40705D5C3
:104C700000E000BF18680028FBD01A7011F8012F5F
:104C8000002AEDD147E701230593EC2303934FF06E
:104C90006C0BD9E71F4BDDF804B05B78DDF818A08A
:104CA000DDF800901B4A002B3FF45BAD1A4D2B79C9
:104CB000052B1ED0062B33D0022B7FF452AD9BF870
:104CC0000C30062B7FF44DAD9378BDF81420DAF844
:104CD0002040ABF81A20002B3FF443ADA868FEF744
:104CE00061FCA36820621B6950466362FFF7D4F938
:104CF00037E59BF80C30012B37D0033B022B3FF6F6
:104D000030AD5046FEF7B6FC2BE500BF5C4B010012
:104D10007C4B01006CE2002078E20020904B010007
:104D20009BF80C30DA1E022A02D9012B7FF419AD50
:104D30005046DAF8204001F09FFA5046984901F0B9
:104D40003BFA5046964901F06BFA5046944901F0FF
:104D50006BFA237B0C2B04D000230C222273637389
:104D600063835046FFF742F8FBE4DAF82040D3783B
:104D7000059AA262E2620BB1EB682363894B1B794F
:104D8000002B33D02B69874A6363527962B3696918
:104D9000A268844B12699B79A1636262EBB9A37329
:104DA000804BDB791BB1E869FEF7FCFBE062DAF8C7
:104DB0002040237B082B04D0002308222273637336
:104DC00063830022504604F12401FCF7FBF9637B66
:104DD0000122134463736283C3E4A869FEF7E2FB14
:104DE0000123A062A373DBE7216BD1E7236B5B0890
:104DF000C9E76D496C224FF060439DE8000AD3F883
:104E0000800EC6070AD5D3F8000EC50706D5186868
:104E100018B900BF18680028FBD01A7011F8012FCC
:104E2000002AECD177E660496C224FF060439DE8A0
:104E3000000AD3F8800EC4070AD5D3F8000EC007C5
:104E400006D5186818B900BF18680028FBD01A707A
:104E500011F8012F002AECD15DE654496C224FF085
:104E600060439DE8000AD3F8800EC0070AD5D3F846
:104E7000000EC70706D5186818B900BF18680028C3
:104E8000FBD01A7011F8012F002AECD143E600255F
:104E9000B1E51FFA8EFB84E50998DDF808B0FEF74E
:104EA00083FB76E5424A6E23D4F8801EC80709D5F5
:104EB000D4F8001EC90705D500E000BF216800290D
:104EC000FBD0237012F8013F002BEDD100BE7CE532
:104ED00035496C224FF060439DE8000AD3F8800EFC
:104EE000C4070AD5D3F8000EC00706D5186818B94C
:104EF00000BF18680028FBD01A7011F8012F002A93
:104F0000ECD108E628496C224FF060439DE8000A86
:104F1000D3F8800EC0070AD5D3F8000EC70706D510
:104F2000186818B900BF18680028FBD01A7011F86B
:104F3000012F002AECD1EEE51C496C224FF06043B2
:104F40009DE8000AD3F8800EC6070AD5D3F8000EF4
:104F5000C50706D5186818B900BF18680028FBD027
:104F60001A7011F8012F002AECD1D4E50E496C22F9
:104F70004FF060439DE8000AD3F8800EC5070AD5BC
:104F8000D3F8000EC40706D5186818B900BF186812
:104F90000028FBD01A7011F8012F002AECD1BAE5D5
:104FA000E04601006CE200202C4B0100384B010070
:104FB000A44B010019496C224FF060439DE8000AA0
:104FC000D3F8800EC0070AD5D3F8000EC70706D560
:104FD000186818B900BF18680028FBD01A7011F8BB
:104FE000012F002AECD196E50D496C224FF0604369
:104FF0009DE8000AD3F8800EC7070AD5D3F8000E43
:10500000C60706D5186818B900BF18680028FBD075
:105010001A7011F8012F002AECD17CE54C4B0100ED
:105020005C4B0100E8B170B5046A82B014B1227B18
:10503000082A01D002B070BD0968626A9142F9D1B4
:105040000C220023227363736383214604220546E6
:10505000FEF734FCE8B1637B14220133637362838F
:10506000E8E74B486E214FF06042D2F8803EDB0704
:1050700009D5D2F8003EDB0705D500E000BF136874
:10508000002BFBD0117010F8011F0029EDD100BEDC
:105090007047238B9A1D442A17D93E4864214FF04C
:1050A0006042D2F8803EDB0709D5D2F8003EDE0729
:1050B00005D500E000BF1368002BFBD0117010F87D
:1050C000011F0029EDD100BE238B6269591C1344D6
:1050D0003222218383F8F020238B6269591C134408
:1050E0000422218383F8F020606AFEF75DFA238BA7
:1050F00006461A1D442A17D9274864214FF06042FA
:10510000D2F8803EDB0709D5D2F8003EDB0705D593
:1051100000E000BF1368002BFBD0117010F8011FD6
:105120000029EDD100BE238B6269591C1344320E55
:10513000218383F8F020238B6269591C1344C6F342
:105140000742218383F8F020238B6269591C1344A2
:10515000C6F30722218383F8F020238B61695A1C50
:105160000B442283204683F8F060FEF735FB218B49
:105170002069F03189B201F0A3FB60682169074A18
:105180000095432306F00EFA2046FEF70FFA62E779
:1051900050430100104A0100D84A0100DC460100DA
:1051A000F0B5046A83B0237B0646052B04D00023A8
:1051B0000522227363736383304621460322FEF780
:1051C0007DFB0546E8B1637B0133DBB2092B6373DA
:1051D00012D82846C3EB431203EB8202120192B2AB
:1051E0003D4B02F2F31283FB0213D217C2EB63139F
:1051F0009BB2638303B0F0BD28462823638303B0CA
:10520000F0BD238B1A1D442A17D9344864214FF06E
:105210006042D2F8803EDB0709D5D2F8003EDF07B6
:1052200005D500E000BF1368002BFBD0117010F80B
:10523000011F0029EDD100BE238B6269591C134464
:105240003922218383F8F020238B6269591C13448F
:105250000222218383F8F020238BB78C9A18442AEA
:1052600017D91F4864214FF06042D2F8803EDB0717
:1052700009D5D2F8003EDB0705D500E000BF136872
:10528000002BFBD0117010F8011F0029EDD100BEDA
:10529000238B6269591C13443A0A218383F8F02056
:1052A000238B61695A1C0B442283204683F8F070DB
:1052B000FEF792FA218B2069F03189B201F000FBF0
:1052C0006068216904F120020096432306F06AF920
:1052D0002046FEF76BF976E7D34D6210104A0100C5
:1052E000944A0100164B10B51C683CB91BE09A8B20
:1052F000511E012A998317D02468A4B1236A002B78
:10530000FAD0DA8B511E012AD983F0D11B7B03F02E
:10531000FB02012A01D00A2BEED12046FEF7C2FC87
:105320002468002CEAD110BD1B7B03F0FB02012A8C
:1053300001D00A2BE0D12046FFF732FFDCE700BFA7
:10534000A0E2002070B5046A82B0237B05461BB141
:105350000023237363736383002323626362A36266
:10536000E362A36363632363284621460722FEF7B3
:10537000A5FA064648B3637B0133DBB2092B63739E
:1053800021D8C3EB431203EB8202D20092B2194B35
:1053900002F2F31283FB0213D217C2EB63139BB228
:1053A0006383284600F068FF2846134900F004FF95
:1053B0002846114900F034FF28460F4900F034FF19
:1053C000304602B070BD1423EAE72046FEF704FA27
:1053D000218B2069F03189B201F072FA606821698D
:1053E00004F120020095432306F0DCF82046FEF786
:1053F000DDF8C0E7D34D6210E0460100F8B52A4B56
:105400001C681CB3002703E0013D75832468ECB1E0
:10541000266A002EFAD0758B012DF5D8F6D1337B94
:1054200077830C2B1CD0062B1AD0012B0FD0082B06
:105430001AD0052B30D0042B1DD0032BE6D1737B63
:105440002046012B2CD9FEF7D1FCDFE7F8BD737B9A
:105450002046052B02D8FEF71FFED7E7FFF772FFA5
:105460002046FEF7C3FCD1E7737B2046012B09D908
:10547000FEF700F9CAE7737B2046082BEED8FEF74B
:1054800011FCC3E706F124010022FBF79BFE737BAE
:10549000758301337373B9E72046FFF781FEB5E7E3
:1054A000FFF726F8B2E700BFA0E20020002833D0C3
:1054B00010B590F82D30046A23F0080380F82D30E1
:1054C0002CB3606820B306F053F9A3680022626031
:1054D000B3B11D4872214FF06042D2F8803EDB0725
:1054E00009D5D2F8003EDB0705D500E000BF136800
:1054F000002BFBD0117010F8011F0029EDD100BE68
:10550000237B23B1002323736373638310BD10BD1A
:10551000A368002BDDD1F3E70C4864214FF0604213
:10552000D2F8803EDB0709D5D2F8003EDB0705D56F
:1055300000E000BF1368002BFBD0117010F8011FB2
:105540000029EDD100BE7047184B0100EC4B010063
:1055500000287DD070B590F82D30066A23F008023F
:1055600080F82D209A0671D5838CB3F5107F63D314
:105570000546002E62D0706808B106F0F9F833696C
:10558000B3B1404870214FF06042D2F8803EDB0753
:1055900009D5D2F8003EDC0705D500E000BF13684E
:1055A000002BFBD0117010F8011F0029EDD100BEB7
:1055B000B368B3B1344C72214FF06042D2F8803EF0
:1055C000D80709D5D2F8003EDB0705D500E000BFBB
:1055D0001368002BFBD0117014F8011F0029EDD1C6
:1055E00000BE00213C2230460DF08DFD06F0DEF8B5
:1055F000706008B3037A254943F020030372442204
:10560000706805F04FFF21494322706806F080F86A
:1056100070681F492A4606F0A7F82846FEF7E6FB01
:1056200038B995F82D3043F0080385F82D3040B295
:1056300070BD2846FFF73AFFFF20F8E73C2000F056
:105640005BFB06460028F7D02862CAE7F220EEE7A7
:1056500010486E214FF06042D2F8803EDB0709D53A
:10566000D2F8003EDB0705D500E000BF1368002B31
:10567000FBD0117010F8011F0029EDD100BEF220FF
:1056800040B27047084C0100184B0100E046010091
:10569000114700005043010008B501F025FCFBF75D
:1056A0005BF800F0F9FB00F0E7FC07F07DFE05F089
:1056B0003BFD01F035FCFCF7FDFBBDE8084000F0C8
:1056C00097BA00BF38B5FDF76FFB0C2000F030FC37
:1056D000002826D0204D21492C6800224FF47A73EF
:1056E00081600260C2604360002C31D06168B1F516
:1056F0007A7F09D9A1F57A7161602860046038BDAC
:1057000051688B4208D3144622685B1A4360002A12
:10571000F6D10260206038BDCB1A53600260206071
:1057200038BD0F4873214FF0604202E010F8011FAE
:1057300081B1D2F8803EDC07F8D5D2F8003EDB0715
:10574000F4D500E000BF1368002BFBD01170EDE72B
:10575000286038BD00BE38BD0C0E0020C5560000C4
:10576000204C010038B5FBF717FB0C2000F0E0FBE4
:10577000002826D041F288331F4D20492C68002292
:10578000436081600260C260002C31D06168994240
:105790000AD9A1F59C51083961602860046038BDC0
:1057A00051688B4208D3144622685B1A4360002A72
:1057B000F6D10260206038BDCB1A536002602060D1
:1057C00038BD0F4873214FF0604202E010F8011F0E
:1057D00081B1D2F8803EDC07F8D5D2F8003EDB0775
:1057E000F4D500E000BF1368002BFBD01170EDE78B
:1057F000286038BD00BE38BD0C0E00206557000083
:10580000204C010038B5FFF76DFD0C2000F090FB37
:10581000002826D04EF660231F4D20492C68002218
:10582000436081600260C260002C31D0616899429F
:105830000AD9A1F56A41603961602860046038BD09
:1058400051688B4208D3144622685B1A4360002AD1
:10585000F6D10260206038BDCB1A53600260206030
:1058600038BD0F4873214FF0604202E010F8011F6D
:1058700081B1D2F8803EDC07F8D5D2F8003EDB07D4
:10588000F4D500E000BF1368002BFBD01170EDE7EA
:10589000286038BD00BE38BD0C0E00200558000041
:1058A000204C010038B5FFF7A9FD0C2000F040FBAB
:1058B000002826D0204D21492C6800224FF4FA738D
:1058C00081600260C2604360002C31D06168B1F534
:1058D000FA7F09D9A1F5FA7161602860046038BDCA
:1058E00051688B4208D3144622685B1A4360002A31
:1058F000F6D10260206038BDCB1A53600260206090
:1059000038BD0F4873214FF0604202E010F8011FCC
:1059100081B1D2F8803EDC07F8D5D2F8003EDB0733
:10592000F4D500E000BF1368002BFBD01170EDE749
:10593000286038BD00BE38BD0C0E0020A558000000
:10594000204C010038B5FCF72DFC0C2000F0F0FADB
:1059500018B31F4D1F492C68002264238160026028
:10596000C2604360002C2FD06168642908D9643973
:1059700061602860046038BD51688B4208D31446CA
:1059800022685B1A4360002AF6D10260206038BDAD
:10599000CB1A53600260206038BD0F4873214FF06E
:1059A000604202E010F8011F81B1D2F8803EDC07AE
:1059B000F8D5D2F8003EDB07F4D500E000BF13684D
:1059C000002BFBD01170EDE7286038BD00BE38BD5C
:1059D0000C0E002045590000204C010038B502F0A3
:1059E000CBFC264B1B681BB30C2000F0A1FA00284F
:1059F00025D0234D23492C680022FA2381600260C0
:105A0000C2604360002C37D06168FA2908D9FA399E
:105A100061602860046038BD51688B4227D314460A
:105A200022685B1A4360002AF6D10260206038BD0C
:105A3000154B1B68002BD7D1144A136038BD14488E
:105A400073214FF06043D3F8802ED40709D5D3F8E3
:105A5000002ED20705D500E000BF1A68002AFBD04F
:105A6000197010F8011F0029EDD100BE38BDCB1A06
:105A700053600260206038BD286038BD3CE40020DF
:105A80000C0E0020DD59000050E40020080E00201C
:105A9000204C010038B5274B1A681ABB264A1268F9
:105AA0000AB301220C201A6000F042FA002826D026
:105AB000224D23492C680022FA2381600260C260D3
:105AC0004360ACB16168FA2904D913E051688B4294
:105AD0002DD3144622685B1A4360002AF6D1026077
